{
  "_format": "hh-sol-artifact-1",
  "contractName": "NAEToken",
  "sourceName": "contracts/NAE_Token.sol",
  "abi": [
    {
      "inputs": [],
      "stateMutability": "nonpayable",
      "type": "constructor"
    },
    {
      "inputs": [
        {
          "internalType": "address",
          "name": "spender",
          "type": "address"
        },
        {
          "internalType": "uint256",
          "name": "allowance",
          "type": "uint256"
        },
        {
          "internalType": "uint256",
          "name": "needed",
          "type": "uint256"
        }
      ],
      "name": "ERC20InsufficientAllowance",
      "type": "error"
    },
    {
      "inputs": [
        {
          "internalType": "address",
          "name": "sender",
          "type": "address"
        },
        {
          "internalType": "uint256",
          "name": "balance",
          "type": "uint256"
        },
        {
          "internalType": "uint256",
          "name": "needed",
          "type": "uint256"
        }
      ],
      "name": "ERC20InsufficientBalance",
      "type": "error"
    },
    {
      "inputs": [
        {
          "internalType": "address",
          "name": "approver",
          "type": "address"
        }
      ],
      "name": "ERC20InvalidApprover",
      "type": "error"
    },
    {
      "inputs": [
        {
          "internalType": "address",
          "name": "receiver",
          "type": "address"
        }
      ],
      "name": "ERC20InvalidReceiver",
      "type": "error"
    },
    {
      "inputs": [
        {
          "internalType": "address",
          "name": "sender",
          "type": "address"
        }
      ],
      "name": "ERC20InvalidSender",
      "type": "error"
    },
    {
      "inputs": [
        {
          "internalType": "address",
          "name": "spender",
          "type": "address"
        }
      ],
      "name": "ERC20InvalidSpender",
      "type": "error"
    },
    {
      "inputs": [
        {
          "internalType": "address",
          "name": "owner",
          "type": "address"
        }
      ],
      "name": "OwnableInvalidOwner",
      "type": "error"
    },
    {
      "inputs": [
        {
          "internalType": "address",
          "name": "account",
          "type": "address"
        }
      ],
      "name": "OwnableUnauthorizedAccount",
      "type": "error"
    },
    {
      "anonymous": false,
      "inputs": [
        {
          "indexed": true,
          "internalType": "address",
          "name": "owner",
          "type": "address"
        },
        {
          "indexed": true,
          "internalType": "address",
          "name": "spender",
          "type": "address"
        },
        {
          "indexed": false,
          "internalType": "uint256",
          "name": "value",
          "type": "uint256"
        }
      ],
      "name": "Approval",
      "type": "event"
    },
    {
      "anonymous": false,
      "inputs": [
        {
          "indexed": true,
          "internalType": "address",
          "name": "account",
          "type": "address"
        },
        {
          "indexed": false,
          "internalType": "bool",
          "name": "isEcosystem",
          "type": "bool"
        }
      ],
      "name": "EcosystemAddressUpdated",
      "type": "event"
    },
    {
      "anonymous": false,
      "inputs": [
        {
          "indexed": true,
          "internalType": "address",
          "name": "from",
          "type": "address"
        },
        {
          "indexed": true,
          "internalType": "address",
          "name": "to",
          "type": "address"
        },
        {
          "indexed": false,
          "internalType": "uint256",
          "name": "amountBurned",
          "type": "uint256"
        }
      ],
      "name": "EcosystemFeeApplied",
      "type": "event"
    },
    {
      "anonymous": false,
      "inputs": [
        {
          "indexed": true,
          "internalType": "address",
          "name": "previousOwner",
          "type": "address"
        },
        {
          "indexed": true,
          "internalType": "address",
          "name": "newOwner",
          "type": "address"
        }
      ],
      "name": "OwnershipTransferred",
      "type": "event"
    },
    {
      "anonymous": false,
      "inputs": [
        {
          "indexed": true,
          "internalType": "address",
          "name": "from",
          "type": "address"
        },
        {
          "indexed": true,
          "internalType": "address",
          "name": "to",
          "type": "address"
        },
        {
          "indexed": false,
          "internalType": "uint256",
          "name": "value",
          "type": "uint256"
        }
      ],
      "name": "Transfer",
      "type": "event"
    },
    {
      "inputs": [],
      "name": "ECOSYSTEM_FEE",
      "outputs": [
        {
          "internalType": "uint256",
          "name": "",
          "type": "uint256"
        }
      ],
      "stateMutability": "view",
      "type": "function"
    },
    {
      "inputs": [],
      "name": "FEE_DENOMINATOR",
      "outputs": [
        {
          "internalType": "uint256",
          "name": "",
          "type": "uint256"
        }
      ],
      "stateMutability": "view",
      "type": "function"
    },
    {
      "inputs": [
        {
          "internalType": "address",
          "name": "owner",
          "type": "address"
        },
        {
          "internalType": "address",
          "name": "spender",
          "type": "address"
        }
      ],
      "name": "allowance",
      "outputs": [
        {
          "internalType": "uint256",
          "name": "",
          "type": "uint256"
        }
      ],
      "stateMutability": "view",
      "type": "function"
    },
    {
      "inputs": [
        {
          "internalType": "address",
          "name": "spender",
          "type": "address"
        },
        {
          "internalType": "uint256",
          "name": "value",
          "type": "uint256"
        }
      ],
      "name": "approve",
      "outputs": [
        {
          "internalType": "bool",
          "name": "",
          "type": "bool"
        }
      ],
      "stateMutability": "nonpayable",
      "type": "function"
    },
    {
      "inputs": [
        {
          "internalType": "address",
          "name": "account",
          "type": "address"
        }
      ],
      "name": "balanceOf",
      "outputs": [
        {
          "internalType": "uint256",
          "name": "",
          "type": "uint256"
        }
      ],
      "stateMutability": "view",
      "type": "function"
    },
    {
      "inputs": [
        {
          "internalType": "uint256",
          "name": "amount",
          "type": "uint256"
        }
      ],
      "name": "burn",
      "outputs": [],
      "stateMutability": "nonpayable",
      "type": "function"
    },
    {
      "inputs": [
        {
          "internalType": "address",
          "name": "account",
          "type": "address"
        },
        {
          "internalType": "uint256",
          "name": "value",
          "type": "uint256"
        }
      ],
      "name": "burnFrom",
      "outputs": [],
      "stateMutability": "nonpayable",
      "type": "function"
    },
    {
      "inputs": [],
      "name": "decimals",
      "outputs": [
        {
          "internalType": "uint8",
          "name": "",
          "type": "uint8"
        }
      ],
      "stateMutability": "view",
      "type": "function"
    },
    {
      "inputs": [
        {
          "internalType": "address",
          "name": "",
          "type": "address"
        }
      ],
      "name": "isEcosystemAddress",
      "outputs": [
        {
          "internalType": "bool",
          "name": "",
          "type": "bool"
        }
      ],
      "stateMutability": "view",
      "type": "function"
    },
    {
      "inputs": [],
      "name": "name",
      "outputs": [
        {
          "internalType": "string",
          "name": "",
          "type": "string"
        }
      ],
      "stateMutability": "view",
      "type": "function"
    },
    {
      "inputs": [],
      "name": "owner",
      "outputs": [
        {
          "internalType": "address",
          "name": "",
          "type": "address"
        }
      ],
      "stateMutability": "view",
      "type": "function"
    },
    {
      "inputs": [],
      "name": "renounceOwnership",
      "outputs": [],
      "stateMutability": "nonpayable",
      "type": "function"
    },
    {
      "inputs": [
        {
          "internalType": "address",
          "name": "account",
          "type": "address"
        },
        {
          "internalType": "bool",
          "name": "status",
          "type": "bool"
        }
      ],
      "name": "setEcosystemAddress",
      "outputs": [],
      "stateMutability": "nonpayable",
      "type": "function"
    },
    {
      "inputs": [],
      "name": "symbol",
      "outputs": [
        {
          "internalType": "string",
          "name": "",
          "type": "string"
        }
      ],
      "stateMutability": "view",
      "type": "function"
    },
    {
      "inputs": [],
      "name": "totalSupply",
      "outputs": [
        {
          "internalType": "uint256",
          "name": "",
          "type": "uint256"
        }
      ],
      "stateMutability": "view",
      "type": "function"
    },
    {
      "inputs": [
        {
          "internalType": "address",
          "name": "to",
          "type": "address"
        },
        {
          "internalType": "uint256",
          "name": "value",
          "type": "uint256"
        }
      ],
      "name": "transfer",
      "outputs": [
        {
          "internalType": "bool",
          "name": "",
          "type": "bool"
        }
      ],
      "stateMutability": "nonpayable",
      "type": "function"
    },
    {
      "inputs": [
        {
          "internalType": "address",
          "name": "from",
          "type": "address"
        },
        {
          "internalType": "address",
          "name": "to",
          "type": "address"
        },
        {
          "internalType": "uint256",
          "name": "value",
          "type": "uint256"
        }
      ],
      "name": "transferFrom",
      "outputs": [
        {
          "internalType": "bool",
          "name": "",
          "type": "bool"
        }
      ],
      "stateMutability": "nonpayable",
      "type": "function"
    },
    {
      "inputs": [
        {
          "internalType": "address",
          "name": "newOwner",
          "type": "address"
        }
      ],
      "name": "transferOwnership",
      "outputs": [],
      "stateMutability": "nonpayable",
      "type": "function"
    }
  ],
  "bytecode": "0x60806040523480156200001157600080fd5b50336040518060400160405280600f81526020017f4e6578757320414920456e67696e6500000000000000000000000000000000008152506040518060400160405280600381526020017f4e4145000000000000000000000000000000000000000000000000000000000081525081600390816200009091906200094f565b508060049081620000a291906200094f565b505050600073ffffffffffffffffffffffffffffffffffffffff168173ffffffffffffffffffffffffffffffffffffffff16036200011a5760006040517f1e4fbdf700000000000000000000000000000000000000000000000000000000815260040162000111919062000a7b565b60405180910390fd5b6200012b816200015060201b60201c565b506200014a336b033b2e3c9fd0803ce80000006200021660201b60201c565b62000c5a565b6000600560009054906101000a900473ffffffffffffffffffffffffffffffffffffffff16905081600560006101000a81548173ffffffffffffffffffffffffffffffffffffffff021916908373ffffffffffffffffffffffffffffffffffffffff1602179055508173ffffffffffffffffffffffffffffffffffffffff168173ffffffffffffffffffffffffffffffffffffffff167f8be0079c531659141344cd1fd0a4f28419497f9722a3daafe3b4186f6b6457e060405160405180910390a35050565b600073ffffffffffffffffffffffffffffffffffffffff168273ffffffffffffffffffffffffffffffffffffffff16036200028b5760006040517fec442f0500000000000000000000000000000000000000000000000000000000815260040162000282919062000a7b565b60405180910390fd5b6200029f60008383620002a360201b60201c565b5050565b60008073ffffffffffffffffffffffffffffffffffffffff168473ffffffffffffffffffffffffffffffffffffffff16141580156200030f5750600073ffffffffffffffffffffffffffffffffffffffff168373ffffffffffffffffffffffffffffffffffffffff1614155b15620003e057600660008573ffffffffffffffffffffffffffffffffffffffff1673ffffffffffffffffffffffffffffffffffffffff16815260200190815260200160002060009054906101000a900460ff1680620003b75750600660008473ffffffffffffffffffffffffffffffffffffffff1673ffffffffffffffffffffffffffffffffffffffff16815260200190815260200160002060009054906101000a900460ff165b15620003df576127106109c483620003d0919062000ac7565b620003dc919062000b41565b90505b5b60008111156200048b57620003fe84600083620004a560201b60201c565b6200041e8484838562000412919062000b79565b620004a560201b60201c565b8273ffffffffffffffffffffffffffffffffffffffff168473ffffffffffffffffffffffffffffffffffffffff167f9360226c98a01b7232988016bdb5b6309534d545b62d3c29c836c584ae0e151f836040516200047d919062000bc5565b60405180910390a36200049f565b6200049e848484620004a560201b60201c565b5b50505050565b600073ffffffffffffffffffffffffffffffffffffffff168373ffffffffffffffffffffffffffffffffffffffff1603620004fb578060026000828254620004ee919062000be2565b92505081905550620005d1565b60008060008573ffffffffffffffffffffffffffffffffffffffff1673ffffffffffffffffffffffffffffffffffffffff168152602001908152602001600020549050818110156200058a578381836040517fe450d38c000000000000000000000000000000000000000000000000000000008152600401620005819392919062000c1d565b60405180910390fd5b8181036000808673ffffffffffffffffffffffffffffffffffffffff1673ffffffffffffffffffffffffffffffffffffffff16815260200190815260200160002081905550505b600073ffffffffffffffffffffffffffffffffffffffff168273ffffffffffffffffffffffffffffffffffffffff16036200061c578060026000828254039250508190555062000669565b806000808473ffffffffffffffffffffffffffffffffffffffff1673ffffffffffffffffffffffffffffffffffffffff168152602001908152602001600020600082825401925050819055505b8173ffffffffffffffffffffffffffffffffffffffff168373ffffffffffffffffffffffffffffffffffffffff167fddf252ad1be2c89b69c2b068fc378daa952ba7f163c4a11628f55a4df523b3ef83604051620006c8919062000bc5565b60405180910390a3505050565b600081519050919050565b7f4e487b7100000000000000000000000000000000000000000000000000000000600052604160045260246000fd5b7f4e487b7100000000000000000000000000000000000000000000000000000000600052602260045260246000fd5b600060028204905060018216806200075757607f821691505b6020821081036200076d576200076c6200070f565b5b50919050565b60008190508160005260206000209050919050565b60006020601f8301049050919050565b600082821b905092915050565b600060088302620007d77fffffffffffffffffffffffffffffffffffffffffffffffffffffffffffffffff8262000798565b620007e3868362000798565b95508019841693508086168417925050509392505050565b6000819050919050565b6000819050919050565b6000620008306200082a6200082484620007fb565b62000805565b620007fb565b9050919050565b6000819050919050565b6200084c836200080f565b620008646200085b8262000837565b848454620007a5565b825550505050565b600090565b6200087b6200086c565b6200088881848462000841565b505050565b5b81811015620008b057620008a460008262000871565b6001810190506200088e565b5050565b601f821115620008ff57620008c98162000773565b620008d48462000788565b81016020851015620008e4578190505b620008fc620008f38562000788565b8301826200088d565b50505b505050565b600082821c905092915050565b6000620009246000198460080262000904565b1980831691505092915050565b60006200093f838362000911565b9150826002028217905092915050565b6200095a82620006d5565b67ffffffffffffffff811115620009765762000975620006e0565b5b6200098282546200073e565b6200098f828285620008b4565b600060209050601f831160018114620009c75760008415620009b2578287015190505b620009be858262000931565b86555062000a2e565b601f198416620009d78662000773565b60005b8281101562000a0157848901518255600182019150602085019450602081019050620009da565b8683101562000a21578489015162000a1d601f89168262000911565b8355505b6001600288020188555050505b505050505050565b600073ffffffffffffffffffffffffffffffffffffffff82169050919050565b600062000a638262000a36565b9050919050565b62000a758162000a56565b82525050565b600060208201905062000a92600083018462000a6a565b92915050565b7f4e487b7100000000000000000000000000000000000000000000000000000000600052601160045260246000fd5b600062000ad482620007fb565b915062000ae183620007fb565b925082820262000af181620007fb565b9150828204841483151762000b0b5762000b0a62000a98565b5b5092915050565b7f4e487b7100000000000000000000000000000000000000000000000000000000600052601260045260246000fd5b600062000b4e82620007fb565b915062000b5b83620007fb565b92508262000b6e5762000b6d62000b12565b5b828204905092915050565b600062000b8682620007fb565b915062000b9383620007fb565b925082820390508181111562000bae5762000bad62000a98565b5b92915050565b62000bbf81620007fb565b82525050565b600060208201905062000bdc600083018462000bb4565b92915050565b600062000bef82620007fb565b915062000bfc83620007fb565b925082820190508082111562000c175762000c1662000a98565b5b92915050565b600060608201905062000c34600083018662000a6a565b62000c43602083018562000bb4565b62000c52604083018462000bb4565b949350505050565b6116d88062000c6a6000396000f3fe608060405234801561001057600080fd5b50600436106101165760003560e01c806370a08231116100a257806395d89b411161007157806395d89b41146102cf578063a9059cbb146102ed578063d73792a91461031d578063dd62ed3e1461033b578063f2fde38b1461036b57610116565b806370a082311461025b578063715018a61461028b57806379cc6790146102955780638da5cb5b146102b157610116565b806323b872dd116100e957806323b872dd146101a3578063313ce567146101d3578063406b283a146101f157806342966c681461020f578063491af8521461022b57610116565b806305e2f84c1461011b57806306fdde0314610137578063095ea7b31461015557806318160ddd14610185575b600080fd5b610135600480360381019061013091906111c8565b610387565b005b61013f610438565b60405161014c9190611298565b60405180910390f35b61016f600480360381019061016a91906112f0565b6104ca565b60405161017c919061133f565b60405180910390f35b61018d6104ed565b60405161019a9190611369565b60405180910390f35b6101bd60048036038101906101b89190611384565b6104f7565b6040516101ca919061133f565b60405180910390f35b6101db610526565b6040516101e891906113f3565b60405180910390f35b6101f961052f565b6040516102069190611369565b60405180910390f35b6102296004803603810190610224919061140e565b610535565b005b6102456004803603810190610240919061143b565b610541565b604051610252919061133f565b60405180910390f35b6102756004803603810190610270919061143b565b610561565b6040516102829190611369565b60405180910390f35b6102936105a9565b005b6102af60048036038101906102aa91906112f0565b6105bd565b005b6102b96105dd565b6040516102c69190611477565b60405180910390f35b6102d7610607565b6040516102e49190611298565b60405180910390f35b610307600480360381019061030291906112f0565b610699565b604051610314919061133f565b60405180910390f35b6103256106bc565b6040516103329190611369565b60405180910390f35b61035560048036038101906103509190611492565b6106c2565b6040516103629190611369565b60405180910390f35b6103856004803603810190610380919061143b565b610749565b005b61038f6107cf565b80600660008473ffffffffffffffffffffffffffffffffffffffff1673ffffffffffffffffffffffffffffffffffffffff16815260200190815260200160002060006101000a81548160ff0219169083151502179055508173ffffffffffffffffffffffffffffffffffffffff167fff66c4460523c35aa965ae076ecb74904352fe17885c2a0f9e08dde73c34419a8260405161042c919061133f565b60405180910390a25050565b60606003805461044790611501565b80601f016020809104026020016040519081016040528092919081815260200182805461047390611501565b80156104c05780601f10610495576101008083540402835291602001916104c0565b820191906000526020600020905b8154815290600101906020018083116104a357829003601f168201915b5050505050905090565b6000806104d5610856565b90506104e281858561085e565b600191505092915050565b6000600254905090565b600080610502610856565b905061050f858285610870565b61051a858585610905565b60019150509392505050565b60006012905090565b6109c481565b61053e816109f9565b50565b60066020528060005260406000206000915054906101000a900460ff1681565b60008060008373ffffffffffffffffffffffffffffffffffffffff1673ffffffffffffffffffffffffffffffffffffffff168152602001908152602001600020549050919050565b6105b16107cf565b6105bb6000610a0d565b565b6105cf826105c9610856565b83610870565b6105d98282610ad3565b5050565b6000600560009054906101000a900473ffffffffffffffffffffffffffffffffffffffff16905090565b60606004805461061690611501565b80601f016020809104026020016040519081016040528092919081815260200182805461064290611501565b801561068f5780601f106106645761010080835404028352916020019161068f565b820191906000526020600020905b81548152906001019060200180831161067257829003601f168201915b5050505050905090565b6000806106a4610856565b90506106b1818585610905565b600191505092915050565b61271081565b6000600160008473ffffffffffffffffffffffffffffffffffffffff1673ffffffffffffffffffffffffffffffffffffffff16815260200190815260200160002060008373ffffffffffffffffffffffffffffffffffffffff1673ffffffffffffffffffffffffffffffffffffffff16815260200190815260200160002054905092915050565b6107516107cf565b600073ffffffffffffffffffffffffffffffffffffffff168173ffffffffffffffffffffffffffffffffffffffff16036107c35760006040517f1e4fbdf70000000000000000000000000000000000000000000000000000000081526004016107ba9190611477565b60405180910390fd5b6107cc81610a0d565b50565b6107d7610856565b73ffffffffffffffffffffffffffffffffffffffff166107f56105dd565b73ffffffffffffffffffffffffffffffffffffffff161461085457610818610856565b6040517f118cdaa700000000000000000000000000000000000000000000000000000000815260040161084b9190611477565b60405180910390fd5b565b600033905090565b61086b8383836001610b55565b505050565b600061087c84846106c2565b90507fffffffffffffffffffffffffffffffffffffffffffffffffffffffffffffffff8110156108ff57818110156108ef578281836040517ffb8f41b20000000000000000000000000000000000000000000000000000000081526004016108e693929190611532565b60405180910390fd5b6108fe84848484036000610b55565b5b50505050565b600073ffffffffffffffffffffffffffffffffffffffff168373ffffffffffffffffffffffffffffffffffffffff16036109775760006040517f96c6fd1e00000000000000000000000000000000000000000000000000000000815260040161096e9190611477565b60405180910390fd5b600073ffffffffffffffffffffffffffffffffffffffff168273ffffffffffffffffffffffffffffffffffffffff16036109e95760006040517fec442f050000000000000000000000000000000000000000000000000000000081526004016109e09190611477565b60405180910390fd5b6109f4838383610d2c565b505050565b610a0a610a04610856565b82610ad3565b50565b6000600560009054906101000a900473ffffffffffffffffffffffffffffffffffffffff16905081600560006101000a81548173ffffffffffffffffffffffffffffffffffffffff021916908373ffffffffffffffffffffffffffffffffffffffff1602179055508173ffffffffffffffffffffffffffffffffffffffff168173ffffffffffffffffffffffffffffffffffffffff167f8be0079c531659141344cd1fd0a4f28419497f9722a3daafe3b4186f6b6457e060405160405180910390a35050565b600073ffffffffffffffffffffffffffffffffffffffff168273ffffffffffffffffffffffffffffffffffffffff1603610b455760006040517f96c6fd1e000000000000000000000000000000000000000000000000000000008152600401610b3c9190611477565b60405180910390fd5b610b5182600083610d2c565b5050565b600073ffffffffffffffffffffffffffffffffffffffff168473ffffffffffffffffffffffffffffffffffffffff1603610bc75760006040517fe602df05000000000000000000000000000000000000000000000000000000008152600401610bbe9190611477565b60405180910390fd5b600073ffffffffffffffffffffffffffffffffffffffff168373ffffffffffffffffffffffffffffffffffffffff1603610c395760006040517f94280d62000000000000000000000000000000000000000000000000000000008152600401610c309190611477565b60405180910390fd5b81600160008673ffffffffffffffffffffffffffffffffffffffff1673ffffffffffffffffffffffffffffffffffffffff16815260200190815260200160002060008573ffffffffffffffffffffffffffffffffffffffff1673ffffffffffffffffffffffffffffffffffffffff168152602001908152602001600020819055508015610d26578273ffffffffffffffffffffffffffffffffffffffff168473ffffffffffffffffffffffffffffffffffffffff167f8c5be1e5ebec7d5bd14f71427d1e84f3dd0314c0f7b2291e5b200ac8c7c3b92584604051610d1d9190611369565b60405180910390a35b50505050565b60008073ffffffffffffffffffffffffffffffffffffffff168473ffffffffffffffffffffffffffffffffffffffff1614158015610d975750600073ffffffffffffffffffffffffffffffffffffffff168373ffffffffffffffffffffffffffffffffffffffff1614155b15610e6157600660008573ffffffffffffffffffffffffffffffffffffffff1673ffffffffffffffffffffffffffffffffffffffff16815260200190815260200160002060009054906101000a900460ff1680610e3d5750600660008473ffffffffffffffffffffffffffffffffffffffff1673ffffffffffffffffffffffffffffffffffffffff16815260200190815260200160002060009054906101000a900460ff165b15610e60576127106109c483610e539190611598565b610e5d9190611609565b90505b5b6000811115610ef657610e7684600083610f08565b610e8c84848385610e87919061163a565b610f08565b8273ffffffffffffffffffffffffffffffffffffffff168473ffffffffffffffffffffffffffffffffffffffff167f9360226c98a01b7232988016bdb5b6309534d545b62d3c29c836c584ae0e151f83604051610ee99190611369565b60405180910390a3610f02565b610f01848484610f08565b5b50505050565b600073ffffffffffffffffffffffffffffffffffffffff168373ffffffffffffffffffffffffffffffffffffffff1603610f5a578060026000828254610f4e919061166e565b9250508190555061102d565b60008060008573ffffffffffffffffffffffffffffffffffffffff1673ffffffffffffffffffffffffffffffffffffffff16815260200190815260200160002054905081811015610fe6578381836040517fe450d38c000000000000000000000000000000000000000000000000000000008152600401610fdd93929190611532565b60405180910390fd5b8181036000808673ffffffffffffffffffffffffffffffffffffffff1673ffffffffffffffffffffffffffffffffffffffff16815260200190815260200160002081905550505b600073ffffffffffffffffffffffffffffffffffffffff168273ffffffffffffffffffffffffffffffffffffffff160361107657806002600082825403925050819055506110c3565b806000808473ffffffffffffffffffffffffffffffffffffffff1673ffffffffffffffffffffffffffffffffffffffff168152602001908152602001600020600082825401925050819055505b8173ffffffffffffffffffffffffffffffffffffffff168373ffffffffffffffffffffffffffffffffffffffff167fddf252ad1be2c89b69c2b068fc378daa952ba7f163c4a11628f55a4df523b3ef836040516111209190611369565b60405180910390a3505050565b600080fd5b600073ffffffffffffffffffffffffffffffffffffffff82169050919050565b600061115d82611132565b9050919050565b61116d81611152565b811461117857600080fd5b50565b60008135905061118a81611164565b92915050565b60008115159050919050565b6111a581611190565b81146111b057600080fd5b50565b6000813590506111c28161119c565b92915050565b600080604083850312156111df576111de61112d565b5b60006111ed8582860161117b565b92505060206111fe858286016111b3565b9150509250929050565b600081519050919050565b600082825260208201905092915050565b60005b83811015611242578082015181840152602081019050611227565b60008484015250505050565b6000601f19601f8301169050919050565b600061126a82611208565b6112748185611213565b9350611284818560208601611224565b61128d8161124e565b840191505092915050565b600060208201905081810360008301526112b2818461125f565b905092915050565b6000819050919050565b6112cd816112ba565b81146112d857600080fd5b50565b6000813590506112ea816112c4565b92915050565b600080604083850312156113075761130661112d565b5b60006113158582860161117b565b9250506020611326858286016112db565b9150509250929050565b61133981611190565b82525050565b60006020820190506113546000830184611330565b92915050565b611363816112ba565b82525050565b600060208201905061137e600083018461135a565b92915050565b60008060006060848603121561139d5761139c61112d565b5b60006113ab8682870161117b565b93505060206113bc8682870161117b565b92505060406113cd868287016112db565b9150509250925092565b600060ff82169050919050565b6113ed816113d7565b82525050565b600060208201905061140860008301846113e4565b92915050565b6000602082840312156114245761142361112d565b5b6000611432848285016112db565b91505092915050565b6000602082840312156114515761145061112d565b5b600061145f8482850161117b565b91505092915050565b61147181611152565b82525050565b600060208201905061148c6000830184611468565b92915050565b600080604083850312156114a9576114a861112d565b5b60006114b78582860161117b565b92505060206114c88582860161117b565b9150509250929050565b7f4e487b7100000000000000000000000000000000000000000000000000000000600052602260045260246000fd5b6000600282049050600182168061151957607f821691505b60208210810361152c5761152b6114d2565b5b50919050565b60006060820190506115476000830186611468565b611554602083018561135a565b611561604083018461135a565b949350505050565b7f4e487b7100000000000000000000000000000000000000000000000000000000600052601160045260246000fd5b60006115a3826112ba565b91506115ae836112ba565b92508282026115bc816112ba565b915082820484148315176115d3576115d2611569565b5b5092915050565b7f4e487b7100000000000000000000000000000000000000000000000000000000600052601260045260246000fd5b6000611614826112ba565b915061161f836112ba565b92508261162f5761162e6115da565b5b828204905092915050565b6000611645826112ba565b9150611650836112ba565b925082820390508181111561166857611667611569565b5b92915050565b6000611679826112ba565b9150611684836112ba565b925082820190508082111561169c5761169b611569565b5b9291505056fea2646970667358221220b91d13fbc59a7c193aa6d4161353a15a3243cc17eca463087bc27602ef6b1f7864736f6c63430008140033",
  "linkReferences": {},
  "deployedLinkReferences": {}
}