{"abi":[{"type":"constructor","inputs":[],"stateMutability":"nonpayable"},{"type":"function","name":"ECOSYSTEM_FEE","inputs":[],"outputs":[{"name":"","type":"uint256","internalType":"uint256"}],"stateMutability":"view"},{"type":"function","name":"FEE_DENOMINATOR","inputs":[],"outputs":[{"name":"","type":"uint256","internalType":"uint256"}],"stateMutability":"view"},{"type":"function","name":"allowance","inputs":[{"name":"owner","type":"address","internalType":"address"},{"name":"spender","type":"address","internalType":"address"}],"outputs":[{"name":"","type":"uint256","internalType":"uint256"}],"stateMutability":"view"},{"type":"function","name":"approve","inputs":[{"name":"spender","type":"address","internalType":"address"},{"name":"value","type":"uint256","internalType":"uint256"}],"outputs":[{"name":"","type":"bool","internalType":"bool"}],"stateMutability":"nonpayable"},{"type":"function","name":"balanceOf","inputs":[{"name":"account","type":"address","internalType":"address"}],"outputs":[{"name":"","type":"uint256","internalType":"uint256"}],"stateMutability":"view"},{"type":"function","name":"burn","inputs":[{"name":"amount","type":"uint256","internalType":"uint256"}],"outputs":[],"stateMutability":"nonpayable"},{"type":"function","name":"burnFrom","inputs":[{"name":"account","type":"address","internalType":"address"},{"name":"value","type":"uint256","internalType":"uint256"}],"outputs":[],"stateMutability":"nonpayable"},{"type":"function","name":"decimals","inputs":[],"outputs":[{"name":"","type":"uint8","internalType":"uint8"}],"stateMutability":"view"},{"type":"function","name":"isEcosystemAddress","inputs":[{"name":"","type":"address","internalType":"address"}],"outputs":[{"name":"","type":"bool","internalType":"bool"}],"stateMutability":"view"},{"type":"function","name":"name","inputs":[],"outputs":[{"name":"","type":"string","internalType":"string"}],"stateMutability":"view"},{"type":"function","name":"owner","inputs":[],"outputs":[{"name":"","type":"address","internalType":"address"}],"stateMutability":"view"},{"type":"function","name":"renounceOwnership","inputs":[],"outputs":[],"stateMutability":"nonpayable"},{"type":"function","name":"setEcosystemAddress","inputs":[{"name":"account","type":"address","internalType":"address"},{"name":"status","type":"bool","internalType":"bool"}],"outputs":[],"stateMutability":"nonpayable"},{"type":"function","name":"symbol","inputs":[],"outputs":[{"name":"","type":"string","internalType":"string"}],"stateMutability":"view"},{"type":"function","name":"totalSupply","inputs":[],"outputs":[{"name":"","type":"uint256","internalType":"uint256"}],"stateMutability":"view"},{"type":"function","name":"transfer","inputs":[{"name":"to","type":"address","internalType":"address"},{"name":"value","type":"uint256","internalType":"uint256"}],"outputs":[{"name":"","type":"bool","internalType":"bool"}],"stateMutability":"nonpayable"},{"type":"function","name":"transferFrom","inputs":[{"name":"from","type":"address","internalType":"address"},{"name":"to","type":"address","internalType":"address"},{"name":"value","type":"uint256","internalType":"uint256"}],"outputs":[{"name":"","type":"bool","internalType":"bool"}],"stateMutability":"nonpayable"},{"type":"function","name":"transferOwnership","inputs":[{"name":"newOwner","type":"address","internalType":"address"}],"outputs":[],"stateMutability":"nonpayable"},{"type":"event","name":"Approval","inputs":[{"name":"owner","type":"address","indexed":true,"internalType":"address"},{"name":"spender","type":"address","indexed":true,"internalType":"address"},{"name":"value","type":"uint256","indexed":false,"internalType":"uint256"}],"anonymous":false},{"type":"event","name":"EcosystemAddressUpdated","inputs":[{"name":"account","type":"address","indexed":true,"internalType":"address"},{"name":"isEcosystem","type":"bool","indexed":false,"internalType":"bool"}],"anonymous":false},{"type":"event","name":"EcosystemFeeApplied","inputs":[{"name":"from","type":"address","indexed":true,"internalType":"address"},{"name":"to","type":"address","indexed":true,"internalType":"address"},{"name":"amountBurned","type":"uint256","indexed":false,"internalType":"uint256"}],"anonymous":false},{"type":"event","name":"OwnershipTransferred","inputs":[{"name":"previousOwner","type":"address","indexed":true,"internalType":"address"},{"name":"newOwner","type":"address","indexed":true,"internalType":"address"}],"anonymous":false},{"type":"event","name":"Transfer","inputs":[{"name":"from","type":"address","indexed":true,"internalType":"address"},{"name":"to","type":"address","indexed":true,"internalType":"address"},{"name":"value","type":"uint256","indexed":false,"internalType":"uint256"}],"anonymous":false},{"type":"error","name":"ERC20InsufficientAllowance","inputs":[{"name":"spender","type":"address","internalType":"address"},{"name":"allowance","type":"uint256","internalType":"uint256"},{"name":"needed","type":"uint256","internalType":"uint256"}]},{"type":"error","name":"ERC20InsufficientBalance","inputs":[{"name":"sender","type":"address","internalType":"address"},{"name":"balance","type":"uint256","internalType":"uint256"},{"name":"needed","type":"uint256","internalType":"uint256"}]},{"type":"error","name":"ERC20InvalidApprover","inputs":[{"name":"approver","type":"address","internalType":"address"}]},{"type":"error","name":"ERC20InvalidReceiver","inputs":[{"name":"receiver","type":"address","internalType":"address"}]},{"type":"error","name":"ERC20InvalidSender","inputs":[{"name":"sender","type":"address","internalType":"address"}]},{"type":"error","name":"ERC20InvalidSpender","inputs":[{"name":"spender","type":"address","internalType":"address"}]},{"type":"error","name":"OwnableInvalidOwner","inputs":[{"name":"owner","type":"address","internalType":"address"}]},{"type":"error","name":"OwnableUnauthorizedAccount","inputs":[{"name":"account","type":"address","internalType":"address"}]}],"bytecode":{"object":"0x608060405234801561000f575f5ffd5b50336040518060400160405280600f81526020017f4e6578757320414920456e67696e6500000000000000000000000000000000008152506040518060400160405280600381526020017f4e41450000000000000000000000000000000000000000000000000000000000815250816003908161008c91906108d6565b50806004908161009c91906108d6565b5050505f73ffffffffffffffffffffffffffffffffffffffff168173ffffffffffffffffffffffffffffffffffffffff160361010f575f6040517f1e4fbdf700000000000000000000000000000000000000000000000000000000815260040161010691906109e4565b60405180910390fd5b61011e8161014060201b60201c565b5061013b336b033b2e3c9fd0803ce800000061020360201b60201c565b610b8b565b5f60055f9054906101000a900473ffffffffffffffffffffffffffffffffffffffff1690508160055f6101000a81548173ffffffffffffffffffffffffffffffffffffffff021916908373ffffffffffffffffffffffffffffffffffffffff1602179055508173ffffffffffffffffffffffffffffffffffffffff168173ffffffffffffffffffffffffffffffffffffffff167f8be0079c531659141344cd1fd0a4f28419497f9722a3daafe3b4186f6b6457e060405160405180910390a35050565b5f73ffffffffffffffffffffffffffffffffffffffff168273ffffffffffffffffffffffffffffffffffffffff1603610273575f6040517fec442f0500000000000000000000000000000000000000000000000000000000815260040161026a91906109e4565b60405180910390fd5b6102845f838361028860201b60201c565b5050565b5f5f90505f73ffffffffffffffffffffffffffffffffffffffff168473ffffffffffffffffffffffffffffffffffffffff16141580156102f457505f73ffffffffffffffffffffffffffffffffffffffff168373ffffffffffffffffffffffffffffffffffffffff1614155b156103b85760065f8573ffffffffffffffffffffffffffffffffffffffff1673ffffffffffffffffffffffffffffffffffffffff1681526020019081526020015f205f9054906101000a900460ff1680610394575060065f8473ffffffffffffffffffffffffffffffffffffffff1673ffffffffffffffffffffffffffffffffffffffff1681526020019081526020015f205f9054906101000a900460ff165b156103b7576127106109c4836103aa9190610a2a565b6103b49190610a98565b90505b5b5f811115610457576103d1845f8361046f60201b60201c565b6103ed848483856103e29190610ac8565b61046f60201b60201c565b8273ffffffffffffffffffffffffffffffffffffffff168473ffffffffffffffffffffffffffffffffffffffff167f9360226c98a01b7232988016bdb5b6309534d545b62d3c29c836c584ae0e151f8360405161044a9190610b0a565b60405180910390a3610469565b61046884848461046f60201b60201c565b5b50505050565b5f73ffffffffffffffffffffffffffffffffffffffff168373ffffffffffffffffffffffffffffffffffffffff16036104bf578060025f8282546104b39190610b23565b9250508190555061058d565b5f5f5f8573ffffffffffffffffffffffffffffffffffffffff1673ffffffffffffffffffffffffffffffffffffffff1681526020019081526020015f2054905081811015610548578381836040517fe450d38c00000000000000000000000000000000000000000000000000000000815260040161053f93929190610b56565b60405180910390fd5b8181035f5f8673ffffffffffffffffffffffffffffffffffffffff1673ffffffffffffffffffffffffffffffffffffffff1681526020019081526020015f2081905550505b5f73ffffffffffffffffffffffffffffffffffffffff168273ffffffffffffffffffffffffffffffffffffffff16036105d4578060025f828254039250508190555061061e565b805f5f8473ffffffffffffffffffffffffffffffffffffffff1673ffffffffffffffffffffffffffffffffffffffff1681526020019081526020015f205f82825401925050819055505b8173ffffffffffffffffffffffffffffffffffffffff168373ffffffffffffffffffffffffffffffffffffffff167fddf252ad1be2c89b69c2b068fc378daa952ba7f163c4a11628f55a4df523b3ef8360405161067b9190610b0a565b60405180910390a3505050565b5f81519050919050565b7f4e487b71000000000000000000000000000000000000000000000000000000005f52604160045260245ffd5b7f4e487b71000000000000000000000000000000000000000000000000000000005f52602260045260245ffd5b5f600282049050600182168061070357607f821691505b602082108103610716576107156106bf565b5b50919050565b5f819050815f5260205f209050919050565b5f6020601f8301049050919050565b5f82821b905092915050565b5f600883026107787fffffffffffffffffffffffffffffffffffffffffffffffffffffffffffffffff8261073d565b610782868361073d565b95508019841693508086168417925050509392505050565b5f819050919050565b5f819050919050565b5f6107c66107c16107bc8461079a565b6107a3565b61079a565b9050919050565b5f819050919050565b6107df836107ac565b6107f36107eb826107cd565b848454610749565b825550505050565b5f5f905090565b61080a6107fb565b6108158184846107d6565b505050565b5f5b8281101561083b576108305f828401610802565b60018101905061081c565b505050565b601f82111561088e578282111561088d5761085a8161071c565b6108638361072e565b61086c8561072e565b6020861015610879575f90505b8083016108888284038261081a565b505050505b5b505050565b5f82821c905092915050565b5f6108ae5f1984600802610893565b1980831691505092915050565b5f6108c6838361089f565b9150826002028217905092915050565b6108df82610688565b67ffffffffffffffff8111156108f8576108f7610692565b5b61090282546106ec565b61090d828285610840565b5f60209050601f83116001811461093e575f841561092c578287015190505b61093685826108bb565b86555061099d565b601f19841661094c8661071c565b5f5b828110156109735784890151825560018201915060208501945060208101905061094e565b86831015610990578489015161098c601f89168261089f565b8355505b6001600288020188555050505b505050505050565b5f73ffffffffffffffffffffffffffffffffffffffff82169050919050565b5f6109ce826109a5565b9050919050565b6109de816109c4565b82525050565b5f6020820190506109f75f8301846109d5565b92915050565b7f4e487b71000000000000000000000000000000000000000000000000000000005f52601160045260245ffd5b5f610a348261079a565b9150610a3f8361079a565b9250828202610a4d8161079a565b91508282048414831517610a6457610a636109fd565b5b5092915050565b7f4e487b71000000000000000000000000000000000000000000000000000000005f52601260045260245ffd5b5f610aa28261079a565b9150610aad8361079a565b925082610abd57610abc610a6b565b5b828204905092915050565b5f610ad28261079a565b9150610add8361079a565b9250828203905081811115610af557610af46109fd565b5b92915050565b610b048161079a565b82525050565b5f602082019050610b1d5f830184610afb565b92915050565b5f610b2d8261079a565b9150610b388361079a565b9250828201905080821115610b5057610b4f6109fd565b5b92915050565b5f606082019050610b695f8301866109d5565b610b766020830185610afb565b610b836040830184610afb565b949350505050565b61164180610b985f395ff3fe608060405234801561000f575f5ffd5b5060043610610114575f3560e01c806370a08231116100a057806395d89b411161006f57806395d89b41146102cc578063a9059cbb146102ea578063d73792a91461031a578063dd62ed3e14610338578063f2fde38b1461036857610114565b806370a0823114610258578063715018a61461028857806379cc6790146102925780638da5cb5b146102ae57610114565b806323b872dd116100e757806323b872dd146101a0578063313ce567146101d0578063406b283a146101ee57806342966c681461020c578063491af8521461022857610114565b806305e2f84c1461011857806306fdde0314610134578063095ea7b31461015257806318160ddd14610182575b5f5ffd5b610132600480360381019061012d9190611179565b610384565b005b61013c610432565b6040516101499190611227565b60405180910390f35b61016c6004803603810190610167919061127a565b6104c2565b60405161017991906112c7565b60405180910390f35b61018a6104e4565b60405161019791906112ef565b60405180910390f35b6101ba60048036038101906101b59190611308565b6104ed565b6040516101c791906112c7565b60405180910390f35b6101d861051b565b6040516101e59190611373565b60405180910390f35b6101f6610523565b60405161020391906112ef565b60405180910390f35b6102266004803603810190610221919061138c565b610529565b005b610242600480360381019061023d91906113b7565b610535565b60405161024f91906112c7565b60405180910390f35b610272600480360381019061026d91906113b7565b610552565b60405161027f91906112ef565b60405180910390f35b610290610597565b005b6102ac60048036038101906102a7919061127a565b6105aa565b005b6102b66105ca565b6040516102c391906113f1565b60405180910390f35b6102d46105f2565b6040516102e19190611227565b60405180910390f35b61030460048036038101906102ff919061127a565b610682565b60405161031191906112c7565b60405180910390f35b6103226106a4565b60405161032f91906112ef565b60405180910390f35b610352600480360381019061034d919061140a565b6106aa565b60405161035f91906112ef565b60405180910390f35b610382600480360381019061037d91906113b7565b61072c565b005b61038c6107b0565b8060065f8473ffffffffffffffffffffffffffffffffffffffff1673ffffffffffffffffffffffffffffffffffffffff1681526020019081526020015f205f6101000a81548160ff0219169083151502179055508173ffffffffffffffffffffffffffffffffffffffff167fff66c4460523c35aa965ae076ecb74904352fe17885c2a0f9e08dde73c34419a8260405161042691906112c7565b60405180910390a25050565b60606003805461044190611475565b80601f016020809104026020016040519081016040528092919081815260200182805461046d90611475565b80156104b85780601f1061048f576101008083540402835291602001916104b8565b820191905f5260205f20905b81548152906001019060200180831161049b57829003601f168201915b5050505050905090565b5f5f6104cc610837565b90506104d981858561083e565b600191505092915050565b5f600254905090565b5f5f6104f7610837565b9050610504858285610850565b61050f8585856108e3565b60019150509392505050565b5f6012905090565b6109c481565b610532816109d3565b50565b6006602052805f5260405f205f915054906101000a900460ff1681565b5f5f5f8373ffffffffffffffffffffffffffffffffffffffff1673ffffffffffffffffffffffffffffffffffffffff1681526020019081526020015f20549050919050565b61059f6107b0565b6105a85f6109e7565b565b6105bc826105b6610837565b83610850565b6105c68282610aaa565b5050565b5f60055f9054906101000a900473ffffffffffffffffffffffffffffffffffffffff16905090565b60606004805461060190611475565b80601f016020809104026020016040519081016040528092919081815260200182805461062d90611475565b80156106785780601f1061064f57610100808354040283529160200191610678565b820191905f5260205f20905b81548152906001019060200180831161065b57829003601f168201915b5050505050905090565b5f5f61068c610837565b90506106998185856108e3565b600191505092915050565b61271081565b5f60015f8473ffffffffffffffffffffffffffffffffffffffff1673ffffffffffffffffffffffffffffffffffffffff1681526020019081526020015f205f8373ffffffffffffffffffffffffffffffffffffffff1673ffffffffffffffffffffffffffffffffffffffff1681526020019081526020015f2054905092915050565b6107346107b0565b5f73ffffffffffffffffffffffffffffffffffffffff168173ffffffffffffffffffffffffffffffffffffffff16036107a4575f6040517f1e4fbdf700000000000000000000000000000000000000000000000000000000815260040161079b91906113f1565b60405180910390fd5b6107ad816109e7565b50565b6107b8610837565b73ffffffffffffffffffffffffffffffffffffffff166107d66105ca565b73ffffffffffffffffffffffffffffffffffffffff1614610835576107f9610837565b6040517f118cdaa700000000000000000000000000000000000000000000000000000000815260040161082c91906113f1565b60405180910390fd5b565b5f33905090565b61084b8383836001610b29565b505050565b5f61085b84846106aa565b90507fffffffffffffffffffffffffffffffffffffffffffffffffffffffffffffffff8110156108dd57818110156108ce578281836040517ffb8f41b20000000000000000000000000000000000000000000000000000000081526004016108c5939291906114a5565b60405180910390fd5b6108dc84848484035f610b29565b5b50505050565b5f73ffffffffffffffffffffffffffffffffffffffff168373ffffffffffffffffffffffffffffffffffffffff1603610953575f6040517f96c6fd1e00000000000000000000000000000000000000000000000000000000815260040161094a91906113f1565b60405180910390fd5b5f73ffffffffffffffffffffffffffffffffffffffff168273ffffffffffffffffffffffffffffffffffffffff16036109c3575f6040517fec442f050000000000000000000000000000000000000000000000000000000081526004016109ba91906113f1565b60405180910390fd5b6109ce838383610cf8565b505050565b6109e46109de610837565b82610aaa565b50565b5f60055f9054906101000a900473ffffffffffffffffffffffffffffffffffffffff1690508160055f6101000a81548173ffffffffffffffffffffffffffffffffffffffff021916908373ffffffffffffffffffffffffffffffffffffffff1602179055508173ffffffffffffffffffffffffffffffffffffffff168173ffffffffffffffffffffffffffffffffffffffff167f8be0079c531659141344cd1fd0a4f28419497f9722a3daafe3b4186f6b6457e060405160405180910390a35050565b5f73ffffffffffffffffffffffffffffffffffffffff168273ffffffffffffffffffffffffffffffffffffffff1603610b1a575f6040517f96c6fd1e000000000000000000000000000000000000000000000000000000008152600401610b1191906113f1565b60405180910390fd5b610b25825f83610cf8565b5050565b5f73ffffffffffffffffffffffffffffffffffffffff168473ffffffffffffffffffffffffffffffffffffffff1603610b99575f6040517fe602df05000000000000000000000000000000000000000000000000000000008152600401610b9091906113f1565b60405180910390fd5b5f73ffffffffffffffffffffffffffffffffffffffff168373ffffffffffffffffffffffffffffffffffffffff1603610c09575f6040517f94280d62000000000000000000000000000000000000000000000000000000008152600401610c0091906113f1565b60405180910390fd5b8160015f8673ffffffffffffffffffffffffffffffffffffffff1673ffffffffffffffffffffffffffffffffffffffff1681526020019081526020015f205f8573ffffffffffffffffffffffffffffffffffffffff1673ffffffffffffffffffffffffffffffffffffffff1681526020019081526020015f20819055508015610cf2578273ffffffffffffffffffffffffffffffffffffffff168473ffffffffffffffffffffffffffffffffffffffff167f8c5be1e5ebec7d5bd14f71427d1e84f3dd0314c0f7b2291e5b200ac8c7c3b92584604051610ce991906112ef565b60405180910390a35b50505050565b5f5f90505f73ffffffffffffffffffffffffffffffffffffffff168473ffffffffffffffffffffffffffffffffffffffff1614158015610d6457505f73ffffffffffffffffffffffffffffffffffffffff168373ffffffffffffffffffffffffffffffffffffffff1614155b15610e285760065f8573ffffffffffffffffffffffffffffffffffffffff1673ffffffffffffffffffffffffffffffffffffffff1681526020019081526020015f205f9054906101000a900460ff1680610e04575060065f8473ffffffffffffffffffffffffffffffffffffffff1673ffffffffffffffffffffffffffffffffffffffff1681526020019081526020015f205f9054906101000a900460ff165b15610e27576127106109c483610e1a9190611507565b610e249190611575565b90505b5b5f811115610ebb57610e3b845f83610ecd565b610e5184848385610e4c91906115a5565b610ecd565b8273ffffffffffffffffffffffffffffffffffffffff168473ffffffffffffffffffffffffffffffffffffffff167f9360226c98a01b7232988016bdb5b6309534d545b62d3c29c836c584ae0e151f83604051610eae91906112ef565b60405180910390a3610ec7565b610ec6848484610ecd565b5b50505050565b5f73ffffffffffffffffffffffffffffffffffffffff168373ffffffffffffffffffffffffffffffffffffffff1603610f1d578060025f828254610f1191906115d8565b92505081905550610feb565b5f5f5f8573ffffffffffffffffffffffffffffffffffffffff1673ffffffffffffffffffffffffffffffffffffffff1681526020019081526020015f2054905081811015610fa6578381836040517fe450d38c000000000000000000000000000000000000000000000000000000008152600401610f9d939291906114a5565b60405180910390fd5b8181035f5f8673ffffffffffffffffffffffffffffffffffffffff1673ffffffffffffffffffffffffffffffffffffffff1681526020019081526020015f2081905550505b5f73ffffffffffffffffffffffffffffffffffffffff168273ffffffffffffffffffffffffffffffffffffffff1603611032578060025f828254039250508190555061107c565b805f5f8473ffffffffffffffffffffffffffffffffffffffff1673ffffffffffffffffffffffffffffffffffffffff1681526020019081526020015f205f82825401925050819055505b8173ffffffffffffffffffffffffffffffffffffffff168373ffffffffffffffffffffffffffffffffffffffff167fddf252ad1be2c89b69c2b068fc378daa952ba7f163c4a11628f55a4df523b3ef836040516110d991906112ef565b60405180910390a3505050565b5f5ffd5b5f73ffffffffffffffffffffffffffffffffffffffff82169050919050565b5f611113826110ea565b9050919050565b61112381611109565b811461112d575f5ffd5b50565b5f8135905061113e8161111a565b92915050565b5f8115159050919050565b61115881611144565b8114611162575f5ffd5b50565b5f813590506111738161114f565b92915050565b5f5f6040838503121561118f5761118e6110e6565b5b5f61119c85828601611130565b92505060206111ad85828601611165565b9150509250929050565b5f81519050919050565b5f82825260208201905092915050565b8281835e5f83830152505050565b5f601f19601f8301169050919050565b5f6111f9826111b7565b61120381856111c1565b93506112138185602086016111d1565b61121c816111df565b840191505092915050565b5f6020820190508181035f83015261123f81846111ef565b905092915050565b5f819050919050565b61125981611247565b8114611263575f5ffd5b50565b5f8135905061127481611250565b92915050565b5f5f604083850312156112905761128f6110e6565b5b5f61129d85828601611130565b92505060206112ae85828601611266565b9150509250929050565b6112c181611144565b82525050565b5f6020820190506112da5f8301846112b8565b92915050565b6112e981611247565b82525050565b5f6020820190506113025f8301846112e0565b92915050565b5f5f5f6060848603121561131f5761131e6110e6565b5b5f61132c86828701611130565b935050602061133d86828701611130565b925050604061134e86828701611266565b9150509250925092565b5f60ff82169050919050565b61136d81611358565b82525050565b5f6020820190506113865f830184611364565b92915050565b5f602082840312156113a1576113a06110e6565b5b5f6113ae84828501611266565b91505092915050565b5f602082840312156113cc576113cb6110e6565b5b5f6113d984828501611130565b91505092915050565b6113eb81611109565b82525050565b5f6020820190506114045f8301846113e2565b92915050565b5f5f604083850312156114205761141f6110e6565b5b5f61142d85828601611130565b925050602061143e85828601611130565b9150509250929050565b7f4e487b71000000000000000000000000000000000000000000000000000000005f52602260045260245ffd5b5f600282049050600182168061148c57607f821691505b60208210810361149f5761149e611448565b5b50919050565b5f6060820190506114b85f8301866113e2565b6114c560208301856112e0565b6114d260408301846112e0565b949350505050565b7f4e487b71000000000000000000000000000000000000000000000000000000005f52601160045260245ffd5b5f61151182611247565b915061151c83611247565b925082820261152a81611247565b91508282048414831517611541576115406114da565b5b5092915050565b7f4e487b71000000000000000000000000000000000000000000000000000000005f52601260045260245ffd5b5f61157f82611247565b915061158a83611247565b92508261159a57611599611548565b5b828204905092915050565b5f6115af82611247565b91506115ba83611247565b92508282039050818111156115d2576115d16114da565b5b92915050565b5f6115e282611247565b91506115ed83611247565b9250828201905080821115611605576116046114da565b5b9291505056fea2646970667358221220e9db750129200b0e6571cc1a8944f9d15120543d999c485bec012b2828af592864736f6c63430008210033","linkReferences":{}},"methodIdentifiers":{"ECOSYSTEM_FEE()":"406b283a","FEE_DENOMINATOR()":"d73792a9","allowance(address,address)":"dd62ed3e","approve(address,uint256)":"095ea7b3","balanceOf(address)":"70a08231","burn(uint256)":"42966c68","burnFrom(address,uint256)":"79cc6790","decimals()":"313ce567","isEcosystemAddress(address)":"491af852","name()":"06fdde03","owner()":"8da5cb5b","renounceOwnership()":"715018a6","setEcosystemAddress(address,bool)":"05e2f84c","symbol()":"95d89b41","totalSupply()":"18160ddd","transfer(address,uint256)":"a9059cbb","transferFrom(address,address,uint256)":"23b872dd","transferOwnership(address)":"f2fde38b"},"id":29}